:02000002D0002C
:1040000000400D0054520D00000006000C00050198
:084010000401BD0B00000000DB
:0440180008500D003F
:10401C0009480A49884208B505D0094A824202D0AB
:10402C00121A00F0A9FF0748074A0021121A00F0E3
:10403C00B1FF014808BD00BFCCE50320C4510D0001
:10404C0034E6032034E60320F0E7032070B5074E76
:10405C00074C00F091FEA41BA4080025A54200D13A
:10406C0070BD56F8043B98470135F7E790510D00A9
:10407C00B4510D0000F01BB808B500F027F8BDE8EE
:10408C00084000F03BBE00F057BA00F05DBA007873
:10409C00B0FA80F04009704701230370704710B5E7
:1040AC000446006808B100F04FFA204610BD08B570
:1040BC000121052000F0D0FE0121062000F0CCFEED
:1040CC00BDE808400121072000F0C6BE08B5FF215D
:1040DC00052000F0D2FE0021062000F0CEFE0021CB
:1040EC00072000F0CAFE4FF47A7000F03DFA002170
:1040FC00052000F0C2FEFF21062000F0BEFE0021CC
:10410C00072000F0BAFE4FF47A7000F02DFA00216F
:10411C00052000F0B2FE0021062000F0AEFEFF21CB
:10412C00072000F0AAFE4FF47A7000F01DFAFF2170
:10413C00052000F0A2FEA521062000F09EFE002125
:10414C00072000F09AFE4FF47A7000F00DFAFF2170
:10415C00052000F092FEFF21062000F08EFE0021CB
:10416C00072000F08AFE4FF47A7000F0FDF98B21E5
:10417C00052000F082FE0021062000F07EFE80214A
:10418C00072000F07AFE0021052000F076FEFF21CA
:10419C00062000F072FEBDE80840FF21072000F069
:1041AC006CBE000038B50A4C0A4BA36000250320F6
:1041BC002560A580A57100F02BF90749074A204618
:1041CC0000F0C2FE29460120BDE8384000F030B9AD
:1041DC0038E603200000FFFFAB400D0034E603205F
:1041EC0008B5024B1B685B6C019308BD48020300C9
:1041FC0008B5024B1B689B6C019308BD4802030079
:10420C0008B5024B1B685B68019308BD18020300DC
:10421C0008B5024B1B685B69019308BD18020300CB
:10422C0008B5024B1B685B68019308BD2C020300A8
:10423C0008B5024B1B689B68019308BD2C02030058
:10424C0008B5024B1B68DB68019308BD2C02030008
:10425C0008B5024B1B689B6A019308BD2C02030036
:10426C0008B5024B1B689B6F019308BD2C02030021
:10427C0008B5024B1B681B6A019308BD280203009A
:10428C0008B5024B1B685B6A019308BD280203004A
:10429C0008B5024B1B689B6A019308BD28020300FA
:1042AC0008B5024B1B68DB6A019308BD28020300AA
:1042BC0008B5024B1B681B6B019308BD2802030059
:1042CC0008B5024B1B685B6B019308BD2802030009
:1042DC0008B5024B1B681B6C019308BD2802030038
:1042EC0008B5024B1B685B69019308BD64020300AF
:1042FC0008B5024B1B689B68019308BD680203005C
:10430C0008B5024B1B68DB68019308BD680203000B
:10431C0008B5024B1B68DB69019308BD3002030032
:10432C0008B5024B1B681B6A019308BD30020300E1
:10433C0008B5024B1B681B68019308BD3C020300C7
:10434C0008B5024B1B68DB68019308BD3C020300F7
:10435C0008B5024B1B681B69019308BD3C020300A6
:10436C0008B5024B1B685B69019308BD3C02030056
:10437C0008B5024B1B689B69019308BD3C02030006
:10438C0008B5024B1B68DB69019308BD3C020300B6
:10439C0008B5024B1B681B6A019308BD3C02030065
:1043AC0008B5024B1B689B6A019308BD3C020300D5
:1043BC0008B5024B1B681B68019308BD4C02030037
:1043CC0008B5024B1B681B69019308BD4C02030026
:1043DC0008B5024B1B685B69019308BD4C020300D6
:1043EC0008B5024B1B689B69019308BD4C02030086
:1043FC0008B5024B1B68DB69019308BD4C02030036
:10440C0008B5024B1B681B6A019308BD4C020300E4
:10441C0008B5024B1B685B68019308BD20020300C2
:10442C0008B5024B1B685B69019308BD20020300B1
:10443C0008B5024B1B68DB6A019308BD2002030020
:10444C0008B5034B1B68D3F88830019308BD0000F6
:10445C002002030008B5034B1B68D3F8943001937A
:10446C0008BD00002002030008B5024B1B68DB6B83
:10447C00019308BD4402030008B5024B1B685B683E
:10448C00019308BD4002030008B5024B1B689B68F2
:10449C00019308BD4002030008B5024B1B68DB68A2
:1044AC00019308BD4002030008B5024B1B681B6951
:1044BC00019308BD4002030008B5024B1B685B6901
:1044CC00019308BD4002030008B5024B1B689B69B1
:1044DC00019308BD4002030008B5024B1B68DB6961
:1044EC00019308BD4002030008B5024B1B681B6A10
:1044FC00019308BD4002030008B5024B1B681B6BFF
:10450C00019308BD4002030008B5024B1B685B6BAE
:10451C00019308BD4002030008B5024B1B681B6CDD
:10452C00019308BD4002030008B5024B1B685B6C8D
:10453C00019308BD4002030008B5024B1B681B68C1
:10454C00019308BD1C02030008B5024B1B685B6895
:10455C00019308BD1C02030008B5024B1B685B6C81
:10456C00019308BD1C0203000021FFF759BF10B5D1
:10457C000446006808B1FFF73BFE204610BD10B59D
:10458C008368044613B1032201469847204610BDA8
:10459C0010B5064C002320462360FFF721FE204671
:1045AC00034A0449BDE8104000F0CEBC44E60320A9
:1045BC0034E603207B450D00002240681146FFF7CE
:1045CC0093BF002240681146FFF79EBF406800224F
:1045DC00FFF792BF4068002281F00101FFF77CBF1A
:1045EC00002340681A461946FFF76EBF0023406847
:1045FC001A461946FFF760BF002240681146FFF7C4
:10460C0053BF002240681146FFF73EBF40680022AE
:10461C000221FFF741BF002340681A46FFF72CBF69
:10462C00024B03225A60024A1A60704748E6032084
:10463C0024500D007047F8B5064615460C468F18E9
:10464C00BC4206D0336814F8011B9B68304698476F
:10465C00F6E72846F8BD007C0022FFF709BE007C77
:10466C000021FFF70DBE007C0021FFF711BE007C7E
:10467C000021FFF715BE007C0021FFF719BE10B515
:10468C001421044600F065FC204610BD10B54FF413
:10469C007A73044608460021C4E90113034B2360D6
:1046AC0020741146FFF714FE204610BD60500D001B
:1046BC00704710B51821044600F04BFC204610BD85
:1046CC00F0B5037D062B8DB00E4600F104074FF0BC
:1046DC00000412D000F1080515F8011D0A2230461D
:1046EC0000F045F9AF42044419D0002CF4D02E212F
:1046FC00304600F039F90444EEE72F236A46394678
:10470C000A208DF80040FFF7EBFD684600F06EFCC8
:10471C0033680246DB6869463046984704462046B3
:10472C000DB0F0BD10B5054B0446112240F8043B0A
:10473C00002100F02FFC204610BD00BF88500D005A
:10474C000346074A10B543F8042B01F1100251F847
:10475C00044B43F8044B9142F9D10A781A7010BDFE
:10476C0088500D0010B59DF8084044EA032343EA35
:10477C00024242EA016104234160037510BD00004E
:10478C0013B5054B0360CB7800938B784A78097886
:10479C00FFF7E8FF02B010BD88500D00014B024A34
:1047AC001A60704750E6032094500D0000234068B7
:1047BC001A46FFF761BE406800220221FFF76CBE6B
:1047CC00002240681146FFF75FBE00224068114688
:1047DC00FFF76ABE002340681A461946FFF76CBE05
:1047EC00002340681A461946FFF76EBE4068002148
:1047FC00FFF792BE40680021FFF796BE406800228A
:10480C0081F00101FFF768BE40680022FFF774BE1B
:10481C00002240681146FFF777BE0022406811461F
:10482C00FFF762BE2DE9F043002495B016460D4605
:10483C000746FFF777FF214618220EA8009400F0D8
:10484C00A9FB4023CDE90C3421466B460CAA30461B
:10485C00FFF756FD044600284CD10246012168683A
:10486C00FFF722FE0221804622466868FFF71CFEF5
:10487C00009E81462146002E3CD000293AD1736817
:10488C00022B03D00A2B11D0F669F4E7B8F1000F14
:10489C000AD0716906A8043107ADFFF771FF0FCD7F
:1048AC003C1D0FC42B6823704146EDE7B9F1000F96
:1048BC0001D14946E8E77469102201A800F06AFBAF
:1048CC0006238DF8143001AD04F108031834186870
:1048DC0059682A4603C20833A3421546F7D101A9E9
:1048EC0006A807ADFFF72CFF0FCD3C1D0FC42B689E
:1048FC002370DEE70098FFF7FBFC384615B0BDE8E7
:10490C00F0830000024B034A1A6000225A60704781
:10491C0054E60320A0500D00F8B506460D468F183E
:10492C000024BD420CD0336815F8011B9B6830463F
:10493C009847031E01DB1C44F3E7002C08BF1C4600
:10494C002046F8BD13B50446084659B1019100F054
:10495C004DFB23680199DB680246204602B0BDE896
:10496C001040184702B010BD03689B68184730B55B
:10497C008BB000238DF82430012A98BF0A2209AC91
:10498C000D46B1FBF2F101FB125303F0FF03092BAF
:10499C0094BF30333733DBB2AA4204F8013DEFD970
:1049AC002146FFF7CFFF0BB030BD10B50446FFF723
:1049BC00E6FD204610BD00000348044A04490023CC
:1049CC00836000F0C1BA00BF5CE6032034E603202C
:1049DC00B7490D0010B5044608462170FFF798FC46
:1049EC0000236360204610BD10B5094B094C022210
:1049FC0000201A60084B2060A080A071A360FFF714
:104A0C0007FD2046054A0649BDE8104000F09CBA57
:104A1C0078E603206CE603200000FFFF34E6032059
:104A2C00AB400D00024B1A68024B1A60704700BF76
:104A3C00CCE503207CE6032070474174704708B531
:104A4C00007CFFF7ADFC20EAE07008BD08B5007CE7
:104A5C00FFF77EFC20EAE07008BD08B5007CFFF78C
:104A6C0087FC40EAE07008BD08B5007CFFF778FCD5
:104A7C0040EAE07008BD007CFFF782BC37B5457C8E
:104A8C0004462DB1207C03B0BDE83040FFF758BC84
:104A9C00007C0191FFF784FC00280199F2DC284688
:104AAC0003B030BD10B51421044600F052FA204674
:104ABC0010BD000010B54FF0000C0446084611461E
:104ACC004FF47A72C4E901C2044A226001222074B4
:104ADC0062741A46FFF72CFC204610BDF8500D00EE
:104AEC0013B50E4C2178BFF35B8F11F0010112D17D
:104AFC0020460191FFF7CBFA019960B1084A094BA6
:104B0C000948FFF7D7FF2046FFF7C6FA074A0849BE
:104B1C00054800F019FA044802B010BD80E60320E5
:104B2C0084E6032008E703208CE7032034E6032007
:104B3C00454A0D0041747047704708B50021007C50
:104B4C00FFF74EFC40EAE07008BD08B50121007C7F
:104B5C00FFF746FC40EAE07008BD08B5007CFFF7A3
:104B6C0037FC20EAE07008BD08B5007CFFF728FC94
:104B7C0020EAE07008BD13B50446007C0191FFF7F4
:104B8C0027FC0028019901DC607C20B1207CFFF718
:104B9C002FFC20EAE07002B010BD007CFFF730BCA7
:104BAC0010B51421044600F0D4F9204610BD0000C5
:104BBC0010B54FF47A73044608460021C4E901137A
:104BCC00044B23600123207463741146FFF7F0FB40
:104BDC00204610BD28510D0010B5142204460021AA
:104BEC0000F0D8F9204610BD10B5104C88B003A8C1
:104BFC00FFF7F2FF2178BFF35B8F11F0010111D1A8
:104C0C0020460191FFF743FA019958B103AA0848CD
:104C1C00FFF7CEFF2046FFF73FFA064A0649044845
:104C2C0000F092F9024808B010BD00BFA0E70320C5
:104C3C00A4E7032034E60320454B0D000022406816
:104C4C001146FFF731BC002240681146FFF74CBCFF
:104C5C00002240681146FFF757BC40680022FFF75E
:104C6C004BBC4068002281F00101FFF735BC0023EA
:104C7C0040681A461946FFF727BC002340681A46BD
:104C8C001946FFF719BC002240681146FFF7FCBB20
:104C9C00406800220221FFF7FFBB002340681A4640
:104CAC00FFF7EABB024B04225A60024A1A607047B3
:104CBC00B8E7032058510D00014B1860704700BF36
:104CCC00D0E5032008B50B4B43B1FFF78DFF03680C
:104CDC001B699847002801DDAFF30080064B43B1F8
:104CEC00FFF7FEFE03681B699847002801DDAFF350
:104CFC00008008BD000000000000000008B5FFF7B0
:104D0C00E1FFFFF785FA014B186008BDD4E70320DB
:104D1C000248034A0349121A00F02EB900F403208A
:104D2C0004F40320C0510D0007B5002300931A466C
:104D3C006FF07701FFF78EFB03B05DF804FB00000A
:104D4C0007B543880A2B08D0502B0BD1094B1B6895
:104D5C004BB103B05DF804EB1847FFF7E5FF03B068
:104D6C005DF804FB002300931A466FF07701FFF700
:104D7C0071FBF4E7C4E7032038B5124C1248134D0D
:104D8C000021FFF7E9FB2368AB42114B0CBF01225A
:104D9C0000221A7002D0FFF7BBFF2560FFF730FA34
:104DAC00044600F0FFF80B4B13B12046AFF3008024
:104DBC0000210848FFF758FBBDE8384006480021A1
:104DCC00FFF73EBB00F40320C54C0D001E1C279AB8
:104DDC00C0E70320000000004D4D0D00232813B543
:104DEC0002D9002002B010BDA0F10B03022B1AD87F
:104DFC00174C2178BFF35B8F11F001010BD12046CA
:104E0C000191FFF744F9019928B11248FFF7E2FD2F
:104E1C002046FFF741F90F4B1878FFF781FA00286D
:104E2C00DFD10120DEE7012809D800F065F8002168
:104E3C00007CFFF745FA80F00100C0B2D2E70938D8
:104E4C000128EED8FFF74CFE007CFFF7A1FAF2E741
:104E5C00C8E70320CCE70320232838B504460D46C9
:104E6C000AD8FF2908D0FFF7B9FF28B129462046F8
:104E7C00BDE83840FFF7DCB938BD38B504460D46FF
:104E8C00FFF7ACFFF0B104212046FFF7C9F9042865
:104E9C0005D1A9B22046BDE83840FFF7D9B90221A7
:104EAC002046FFF7BDF902280CD12046FFF7C8F9C0
:104EBC00012801D0042805D129462046BDE83840F8
:104ECC00FFF7CEB938BD000038B50023202543804C
:104EDC00142304460380856005610649284600F0CA
:104EEC003AF804496060284600F035F8E060204646
:104EFC0038BD00BF8C510D0030B50F4D2978BFF374
:104F0C005B8F11F0010487B013D12846FFF7BFF86F
:104F1C0078B101A8FFF7D8FF01AA21460748FFF78F
:104F2C00B5FB2846FFF7B8F8054A0649034800F0D8
:104F3C000BF8024807B030BDD8E70320DCE70320AC
:104F4C0034E6032041460D000B460146184600F09E
:104F5C0005B8FFF79AB8FFF796B8000010B5054CE6
:104F6C0013462CB10A4601460220AFF3008010BD57
:104F7C002046FCE7000000000A44914200F1FF3398
:104F8C0000D1704710B511F8014B03F8014F914255
:104F9C00F9D110BD02440346934200D1704703F887
:104FAC00011BF9E738B50D4B1D68AB6B04467BB99B
:104FBC001820FFF7C1FA0A4A0A4BA863C0E900237C
:104FCC00094B83600B23838101220023C0E9042356
:104FDC00AB6B00221C615A6138BD00BFD0E50320C9
:104FEC000E33CDAB34126DE6ECDE0500034613F840
:104FFC00012B002AFBD1181A013870471D400D00F7
:10500C0059400D0081400D0085400D00000000004E
:10501C00000000000000000023460D0019460D00A2
:10502C000F460D0005460D00F9450D00ED450D0030
:10503C00F9470D0001480D00E1450D00D9450D0063
:10504C00CF450D00C5450D0031480D000000000096
:10505C000000000041460D008B460D0063460D001C
:10506C0043460D006B460D0073460D007B460D004C
:10507C0083460D000000000000000000CD460D002E
:10508C00BD460D00BF460D006170700000000000B1
:10509C0000000000B9470D00C3470D00CD470D00BF
:1050AC00D7470D00E1470D00ED470D00F9470D0006
:1050BC0001480D0009480D0015480D001D480D0054
:1050CC0027480D0031480D0025592D256D2D2564DF
:1050DC005425483A254D3A2553257A00617363745B
:1050EC00696D65000000000000000000454A0D00DD
:1050FC00B14A0D00894A0D0025490D00594A0D0091
:10510C00754A0D00674A0D00834A0D00474A0D0091
:10511C004B4A0D000000000000000000454B0D0044
:10512C00AD4B0D00834B0D0025490D00754B0D004B
:10513C00474B0D00574B0D00A74B0D00674B0D0057
:10514C00414B0D000000000000000000A74C0D00BA
:10515C009D4C0D00934C0D00494C0D00874C0D00DF
:10516C007B4C0D00F9470D0001480D006F4C0D00F4
:10517C00674C0D005D4C0D00534C0D0031480D007B
:10518C0000000000B1410D009D450D002D460D00A5
:10519C00A9470D0011490D00C5490D00F5490D0039
:1051AC00314A0D00B14C0D00000000000000000061
:0451BC0000000000EF
:0451C00000000000EB
:1051C400E8500D00D4E503200000000000000000BA
:1051D40000000000000000000000000000000000CB
:1051E40000000000000000000000000000000000BB
:1051F40000000000000000000000000000000000AB
:10520400000000000000000000000000000000009A
:10521400000000000000000000000000000000008A
:08522400000000000000000082
:10522C00FFFFFFFF00000102030405060708090A3F
:10523C000B0C0D0E0F101112131415161718191A3A
:08524C001B1C1D1E1F20280081
:045254007856341242
:04000003D000401CCD
:00000001FF
